{
  "contractName": "SwapThang",
  "abi": [
    {
      "inputs": [
        {
          "internalType": "contract Token",
          "name": "_token",
          "type": "address"
        }
      ],
      "payable": false,
      "stateMutability": "nonpayable",
      "type": "constructor"
    },
    {
      "anonymous": false,
      "inputs": [
        {
          "indexed": true,
          "internalType": "address",
          "name": "act",
          "type": "address"
        },
        {
          "indexed": true,
          "internalType": "address",
          "name": "token",
          "type": "address"
        },
        {
          "indexed": false,
          "internalType": "uint256",
          "name": "amount",
          "type": "uint256"
        },
        {
          "indexed": false,
          "internalType": "uint256",
          "name": "rate",
          "type": "uint256"
        }
      ],
      "name": "TokensBought",
      "type": "event"
    },
    {
      "anonymous": false,
      "inputs": [
        {
          "indexed": true,
          "internalType": "address",
          "name": "act",
          "type": "address"
        },
        {
          "indexed": true,
          "internalType": "address",
          "name": "token",
          "type": "address"
        },
        {
          "indexed": false,
          "internalType": "uint256",
          "name": "amount",
          "type": "uint256"
        },
        {
          "indexed": false,
          "internalType": "uint256",
          "name": "rate",
          "type": "uint256"
        }
      ],
      "name": "TokensSold",
      "type": "event"
    },
    {
      "constant": true,
      "inputs": [],
      "name": "name",
      "outputs": [
        {
          "internalType": "string",
          "name": "",
          "type": "string"
        }
      ],
      "payable": false,
      "stateMutability": "view",
      "type": "function"
    },
    {
      "constant": true,
      "inputs": [],
      "name": "rate",
      "outputs": [
        {
          "internalType": "uint256",
          "name": "",
          "type": "uint256"
        }
      ],
      "payable": false,
      "stateMutability": "view",
      "type": "function"
    },
    {
      "constant": true,
      "inputs": [],
      "name": "token",
      "outputs": [
        {
          "internalType": "contract Token",
          "name": "",
          "type": "address"
        }
      ],
      "payable": false,
      "stateMutability": "view",
      "type": "function"
    },
    {
      "constant": false,
      "inputs": [],
      "name": "buy",
      "outputs": [],
      "payable": true,
      "stateMutability": "payable",
      "type": "function"
    },
    {
      "constant": false,
      "inputs": [
        {
          "internalType": "uint256",
          "name": "_amount",
          "type": "uint256"
        }
      ],
      "name": "sell",
      "outputs": [],
      "payable": false,
      "stateMutability": "nonpayable",
      "type": "function"
    }
  ],
  "bytecode": "0x6080604052604051806060016040528060288152602001610a1e60289139600090805190602001906100329291906100c1565b50620f424060025534801561004657600080fd5b50604051610a46380380610a468339818101604052602081101561006957600080fd5b810190808051906020019092919050505080600160006101000a81548173ffffffffffffffffffffffffffffffffffffffff021916908373ffffffffffffffffffffffffffffffffffffffff16021790555050610166565b828054600181600116156101000203166002900490600052602060002090601f016020900481019282601f1061010257805160ff1916838001178555610130565b82800160010185558215610130579182015b8281111561012f578251825591602001919060010190610114565b5b50905061013d9190610141565b5090565b61016391905b8082111561015f576000816000905550600101610147565b5090565b90565b6108a9806101756000396000f3fe608060405260043610610067576000357c01000000000000000000000000000000000000000000000000000000009004806306fdde031461006c5780632c4e722e146100fc578063a6f2ae3a14610127578063e4849b3214610131578063fc0c546a1461016c575b600080fd5b34801561007857600080fd5b506100816101c3565b6040518080602001828103825283818151815260200191508051906020019080838360005b838110156100c15780820151818401526020810190506100a6565b50505050905090810190601f1680156100ee5780820380516001836020036101000a031916815260200191505b509250505060405180910390f35b34801561010857600080fd5b50610111610261565b6040518082815260200191505060405180910390f35b61012f610267565b005b34801561013d57600080fd5b5061016a6004803603602081101561015457600080fd5b8101908080359060200190929190505050610507565b005b34801561017857600080fd5b5061018161084e565b604051808273ffffffffffffffffffffffffffffffffffffffff1673ffffffffffffffffffffffffffffffffffffffff16815260200191505060405180910390f35b60008054600181600116156101000203166002900480601f0160208091040260200160405190810160405280929190818152602001828054600181600116156101000203166002900480156102595780601f1061022e57610100808354040283529160200191610259565b820191906000526020600020905b81548152906001019060200180831161023c57829003601f168201915b505050505081565b60025481565b60006002543402905080600160009054906101000a900473ffffffffffffffffffffffffffffffffffffffff1673ffffffffffffffffffffffffffffffffffffffff166370a08231306040518263ffffffff167c0100000000000000000000000000000000000000000000000000000000028152600401808273ffffffffffffffffffffffffffffffffffffffff1673ffffffffffffffffffffffffffffffffffffffff16815260200191505060206040518083038186803b15801561032c57600080fd5b505afa158015610340573d6000803e3d6000fd5b505050506040513d602081101561035657600080fd5b8101908080519060200190929190505050101561037257600080fd5b600160009054906101000a900473ffffffffffffffffffffffffffffffffffffffff1673ffffffffffffffffffffffffffffffffffffffff1663a9059cbb33836040518363ffffffff167c0100000000000000000000000000000000000000000000000000000000028152600401808373ffffffffffffffffffffffffffffffffffffffff1673ffffffffffffffffffffffffffffffffffffffff16815260200182815260200192505050602060405180830381600087803b15801561043757600080fd5b505af115801561044b573d6000803e3d6000fd5b505050506040513d602081101561046157600080fd5b810190808051906020019092919050505050600160009054906101000a900473ffffffffffffffffffffffffffffffffffffffff1673ffffffffffffffffffffffffffffffffffffffff163373ffffffffffffffffffffffffffffffffffffffff167fc244d500136edffae7025aaf7fbd7a07193ac544a1d0cc3132cf2a32452d340c83600254604051808381526020018281526020019250505060405180910390a350565b80600160009054906101000a900473ffffffffffffffffffffffffffffffffffffffff1673ffffffffffffffffffffffffffffffffffffffff166370a08231336040518263ffffffff167c0100000000000000000000000000000000000000000000000000000000028152600401808273ffffffffffffffffffffffffffffffffffffffff1673ffffffffffffffffffffffffffffffffffffffff16815260200191505060206040518083038186803b1580156105c357600080fd5b505afa1580156105d7573d6000803e3d6000fd5b505050506040513d60208110156105ed57600080fd5b8101908080519060200190929190505050101561060957600080fd5b6000600254828161061657fe5b049050803073ffffffffffffffffffffffffffffffffffffffff1631101561063d57600080fd5b600160009054906101000a900473ffffffffffffffffffffffffffffffffffffffff1673ffffffffffffffffffffffffffffffffffffffff166323b872dd3330856040518463ffffffff167c0100000000000000000000000000000000000000000000000000000000028152600401808473ffffffffffffffffffffffffffffffffffffffff1673ffffffffffffffffffffffffffffffffffffffff1681526020018373ffffffffffffffffffffffffffffffffffffffff1673ffffffffffffffffffffffffffffffffffffffff1681526020018281526020019350505050602060405180830381600087803b15801561073657600080fd5b505af115801561074a573d6000803e3d6000fd5b505050506040513d602081101561076057600080fd5b8101908080519060200190929190505050503373ffffffffffffffffffffffffffffffffffffffff166108fc829081150290604051600060405180830381858888f193505050501580156107b8573d6000803e3d6000fd5b50600160009054906101000a900473ffffffffffffffffffffffffffffffffffffffff1673ffffffffffffffffffffffffffffffffffffffff163373ffffffffffffffffffffffffffffffffffffffff167f697c42d55a5e1fed3f464ec6f38b32546a0bd368dc8068b065c67566d73f329084600254604051808381526020018281526020019250505060405180910390a35050565b600160009054906101000a900473ffffffffffffffffffffffffffffffffffffffff168156fea265627a7a72315820cdb5a625b53e3e596150ed1b32063d9f27be833b45ddbcb0a681fad74b670d1764736f6c63430005100032537761705468616e67202d2053656e642c2057697468647261772c20416e64205075726368617365",
  "source": "pragma solidity ^0.5.0;\n\nimport \"./Token.sol\";\n\ncontract SwapThang {\n    string public name = \"SwapThang - Send, Withdraw, And Purchase\";\n    Token public token;\n    uint public rate = 1 * 10**6; //1 Eth to 1M PANGO Tokens\n\n    constructor(Token _token) public {\n        token = _token;\n    }\n\n    //events\n    event TokensBought(\n        address indexed act,\n        address indexed token,\n        uint amount,\n        uint rate\n    );\n\n    event TokensSold(\n        address indexed act,\n        address indexed token,\n        uint amount,\n        uint rate\n    );\n\n    //functions\n    function buy() public payable {\n        //calulate the amount to purchase\n        uint amount = msg.value * rate;\n        //make sure this contract has enough tokens to send them\n        require(token.balanceOf(address(this)) >= amount);\n        //transfer the tokens \n        token.transfer(msg.sender, amount);\n        //send an event\n        emit TokensBought(msg.sender, address(token), amount, rate);\n    }\n\n    function sell(uint _amount) public {\n        //can they send us that amount\n        require(token.balanceOf(msg.sender) >= _amount);\n        //calulate the amount of eth to send\n        uint ethAmount = _amount / rate;\n        //make sure this contract has enough eth to send\n        require(address(this).balance >= ethAmount);\n        //move tokens from account to this contract\n        token.transferFrom(msg.sender, address(this), _amount);\n        // address addr = msg.sender;\n        // address payable wallet = address(uint160(addr));\n        //send the sender eth\n        msg.sender.transfer(ethAmount);\n        //send an event\n        emit TokensSold(msg.sender, address(token), _amount, rate);\n    }\n}",
  "sourcePath": "/home/scott/projects/swap-thang/contracts/SwapThang.sol",
  "compiler": {
    "name": "solc",
    "version": "0.5.16+commit.9c3226ce.Emscripten.clang"
  },
  "schemaVersion": "3.4.1",
  "updatedAt": "2021-08-28T06:04:21.849Z",
  "devdoc": {
    "methods": {}
  },
  "userdoc": {
    "methods": {}
  }
}